{
  "contractName": "MyStringStore",
  "abi": [
    {
      "inputs": [],
      "payable": false,
      "stateMutability": "nonpayable",
      "type": "constructor"
    },
    {
      "constant": true,
      "inputs": [],
      "name": "bet",
      "outputs": [
        {
          "internalType": "uint256",
          "name": "",
          "type": "uint256"
        }
      ],
      "payable": false,
      "stateMutability": "view",
      "type": "function"
    },
    {
      "constant": true,
      "inputs": [],
      "name": "currentTurn",
      "outputs": [
        {
          "internalType": "uint256",
          "name": "",
          "type": "uint256"
        }
      ],
      "payable": false,
      "stateMutability": "view",
      "type": "function"
    },
    {
      "constant": true,
      "inputs": [],
      "name": "face",
      "outputs": [
        {
          "internalType": "uint256",
          "name": "",
          "type": "uint256"
        }
      ],
      "payable": false,
      "stateMutability": "view",
      "type": "function"
    },
    {
      "constant": true,
      "inputs": [],
      "name": "fetchable",
      "outputs": [
        {
          "internalType": "bool",
          "name": "",
          "type": "bool"
        }
      ],
      "payable": false,
      "stateMutability": "view",
      "type": "function"
    },
    {
      "constant": true,
      "inputs": [],
      "name": "gameOver",
      "outputs": [
        {
          "internalType": "bool",
          "name": "",
          "type": "bool"
        }
      ],
      "payable": false,
      "stateMutability": "view",
      "type": "function"
    },
    {
      "constant": true,
      "inputs": [],
      "name": "roundLoser",
      "outputs": [
        {
          "internalType": "uint256",
          "name": "",
          "type": "uint256"
        }
      ],
      "payable": false,
      "stateMutability": "view",
      "type": "function"
    },
    {
      "constant": true,
      "inputs": [],
      "name": "roundStarter",
      "outputs": [
        {
          "internalType": "uint256",
          "name": "",
          "type": "uint256"
        }
      ],
      "payable": false,
      "stateMutability": "view",
      "type": "function"
    },
    {
      "constant": true,
      "inputs": [],
      "name": "roundWinner",
      "outputs": [
        {
          "internalType": "uint256",
          "name": "",
          "type": "uint256"
        }
      ],
      "payable": false,
      "stateMutability": "view",
      "type": "function"
    },
    {
      "constant": false,
      "inputs": [
        {
          "internalType": "uint256",
          "name": "player",
          "type": "uint256"
        }
      ],
      "name": "registerPlayer",
      "outputs": [],
      "payable": false,
      "stateMutability": "nonpayable",
      "type": "function"
    },
    {
      "constant": false,
      "inputs": [],
      "name": "callPrev",
      "outputs": [],
      "payable": false,
      "stateMutability": "nonpayable",
      "type": "function"
    },
    {
      "constant": false,
      "inputs": [
        {
          "internalType": "uint256",
          "name": "nonce",
          "type": "uint256"
        },
        {
          "internalType": "uint256",
          "name": "incomingbet",
          "type": "uint256"
        }
      ],
      "name": "roll",
      "outputs": [],
      "payable": true,
      "stateMutability": "payable",
      "type": "function"
    },
    {
      "constant": true,
      "inputs": [],
      "name": "revealDie",
      "outputs": [
        {
          "internalType": "uint256[5]",
          "name": "",
          "type": "uint256[5]"
        }
      ],
      "payable": false,
      "stateMutability": "view",
      "type": "function"
    },
    {
      "constant": true,
      "inputs": [],
      "name": "lives",
      "outputs": [
        {
          "internalType": "uint256[5]",
          "name": "",
          "type": "uint256[5]"
        }
      ],
      "payable": false,
      "stateMutability": "view",
      "type": "function"
    }
  ],
  "bytecode": "0x608060405234801561001057600080fd5b506000600360026101000a81548160ff0219169083151502179055506000600360006101000a81548160ff0219169083151502179055506000600360016101000a81548160ff02191690831515021790555060056000806001815260200190815260200160002081905550600560008060028152602001908152602001600020819055506005600080600381526020019081526020016000208190555060056000806004815260200190815260200160002081905550600560008060058152602001908152602001600020819055506100ef60016100f460201b60201c565b6101d4565b6001600642604051602001808281526020019150506040516020818303038152906040528051906020012060001c8161012957fe5b06016007819055506000600881905550806001819055508060028190555060006010600060018152602001908152602001600020819055506000601060006002815260200190815260200160002081905550600060106000600381526020019081526020016000208190555060006010600060048152602001908152602001600020819055506000601060006005815260200190815260200160002081905550600060048190555050565b61140f806101e36000396000f3fe6080604052600436106100c25760003560e01c8063821644e61161007f578063c6cd3b2411610059578063c6cd3b241461027f578063d5bc7848146102ae578063deb61286146102d9578063e6f5489114610304576100c2565b8063821644e6146101ea578063a823a60d14610225578063bdb337d114610250576100c2565b806311610c25146100c75780631c582cf7146100f2578063297f5abd1461011d578063469e014214610170578063520298a0146101875780636ec9b897146101b2575b600080fd5b3480156100d357600080fd5b506100dc610357565b6040518082815260200191505060405180910390f35b3480156100fe57600080fd5b5061010761035d565b6040518082815260200191505060405180910390f35b34801561012957600080fd5b50610132610363565b6040518082600560200280838360005b8381101561015d578082015181840152602081019050610142565b5050505090500191505060405180910390f35b34801561017c57600080fd5b50610185610554565b005b34801561019357600080fd5b5061019c61079e565b6040518082815260200191505060405180910390f35b6101e8600480360360408110156101c857600080fd5b8101908080359060200190929190803590602001909291905050506107a4565b005b3480156101f657600080fd5b506102236004803603602081101561020d57600080fd5b8101908080359060200190929190505050610e8d565b005b34801561023157600080fd5b5061023a610f92565b6040518082815260200191505060405180910390f35b34801561025c57600080fd5b50610265610f98565b604051808215151515815260200191505060405180910390f35b34801561028b57600080fd5b50610294610fab565b604051808215151515815260200191505060405180910390f35b3480156102ba57600080fd5b506102c3610fbe565b6040518082815260200191505060405180910390f35b3480156102e557600080fd5b506102ee610fc4565b6040518082815260200191505060405180910390f35b34801561031057600080fd5b50610319610fca565b6040518082600560200280838360005b83811015610344578082015181840152602081019050610329565b5050505090500191505060405180910390f35b60085481565b60075481565b61036b611346565b600360029054906101000a900460ff166103ed576040517f08c379a00000000000000000000000000000000000000000000000000000000081526004018080602001828103825260198152602001807f43616e277420766965772064696365207269676874206e6f770000000000000081525060200191505060405180910390fd5b6040518060a00160405280600b60003373ffffffffffffffffffffffffffffffffffffffff1673ffffffffffffffffffffffffffffffffffffffff168152602001908152602001600020548152602001600c60003373ffffffffffffffffffffffffffffffffffffffff1673ffffffffffffffffffffffffffffffffffffffff168152602001908152602001600020548152602001600d60003373ffffffffffffffffffffffffffffffffffffffff1673ffffffffffffffffffffffffffffffffffffffff168152602001908152602001600020548152602001600e60003373ffffffffffffffffffffffffffffffffffffffff1673ffffffffffffffffffffffffffffffffffffffff168152602001908152602001600020548152602001600f60003373ffffffffffffffffffffffffffffffffffffffff1673ffffffffffffffffffffffffffffffffffffffff16815260200190815260200160002054815250905090565b60056000600154815260200190815260200160002060009054906101000a900473ffffffffffffffffffffffffffffffffffffffff1673ffffffffffffffffffffffffffffffffffffffff163373ffffffffffffffffffffffffffffffffffffffff161461062a576040517f08c379a000000000000000000000000000000000000000000000000000000000815260040180806020018281038252600d8152602001807f4e6f7420796f7572207475726e0000000000000000000000000000000000000081525060200191505060405180910390fd5b6000806000600154815260200190815260200160002054116106b4576040517f08c379a000000000000000000000000000000000000000000000000000000000815260040180806020018281038252601c8152602001807f44696365206f76657220666f7220796f752c2067616d65206f7665720000000081525060200191505060405180910390fd5b6002546001541415610711576040517f08c379a00000000000000000000000000000000000000000000000000000000081526004018080602001828103825260478152602001806113696047913960600191505060405180910390fd5b600360019054906101000a900460ff1615610794576040517f08c379a000000000000000000000000000000000000000000000000000000000815260040180806020018281038252600c8152602001807f67616d65206973206f766572000000000000000000000000000000000000000081525060200191505060405180910390fd5b61079c61105d565b565b60025481565b60056000600154815260200190815260200160002060009054906101000a900473ffffffffffffffffffffffffffffffffffffffff1673ffffffffffffffffffffffffffffffffffffffff163373ffffffffffffffffffffffffffffffffffffffff161461087a576040517f08c379a000000000000000000000000000000000000000000000000000000000815260040180806020018281038252600d8152602001807f4e6f7420796f7572207475726e0000000000000000000000000000000000000081525060200191505060405180910390fd5b600080600060015481526020019081526020016000205411610904576040517f08c379a000000000000000000000000000000000000000000000000000000000815260040180806020018281038252601c8152602001807f44696365206f76657220666f7220796f752c2067616d65206f7665720000000081525060200191505060405180910390fd5b60008060006001548152602001908152602001600020541161098e576040517f08c379a000000000000000000000000000000000000000000000000000000000815260040180806020018281038252601c8152602001807f44696365206f76657220666f7220796f752c2067616d65206f7665720000000081525060200191505060405180910390fd5b600854811015610a06576040517f08c379a000000000000000000000000000000000000000000000000000000000815260040180806020018281038252600b8152602001807f696c6c6567616c2062696400000000000000000000000000000000000000000081525060200191505060405180910390fd5b6005341015610a7d576040517f08c379a00000000000000000000000000000000000000000000000000000000081526004018080602001828103825260148152602001807f4d696e696d756d2070617920697320352077656900000000000000000000000081525060200191505060405180910390fd5b600360019054906101000a900460ff1615610b00576040517f08c379a000000000000000000000000000000000000000000000000000000000815260040180806020018281038252600c8152602001807f67616d65206973206f766572000000000000000000000000000000000000000081525060200191505060405180910390fd5b6000610b0e3384600161115c565b905080600b60003373ffffffffffffffffffffffffffffffffffffffff1673ffffffffffffffffffffffffffffffffffffffff1681526020019081526020016000208190555060016010600083815260200190815260200160002060008282540192505081905550610b823384600261115c565b905080600c60003373ffffffffffffffffffffffffffffffffffffffff1673ffffffffffffffffffffffffffffffffffffffff1681526020019081526020016000208190555060016010600083815260200190815260200160002060008282540192505081905550610bf63384600361115c565b905080600d60003373ffffffffffffffffffffffffffffffffffffffff1673ffffffffffffffffffffffffffffffffffffffff1681526020019081526020016000208190555060016010600083815260200190815260200160002060008282540192505081905550610c6a3384600461115c565b905080600e60003373ffffffffffffffffffffffffffffffffffffffff1673ffffffffffffffffffffffffffffffffffffffff1681526020019081526020016000208190555060016010600083815260200190815260200160002060008282540192505081905550610cde3384600561115c565b905080600f60003373ffffffffffffffffffffffffffffffffffffffff1673ffffffffffffffffffffffffffffffffffffffff1681526020019081526020016000208190555060016010600083815260200190815260200160002060008282540192505081905550816008819055503460046000828254019250508190555060046001600082825481610d6d57fe5b06925050819055506001806000828254019250508190555060008060006001548152602001908152602001600020541415610dcb5760046001600082825481610db257fe5b0692505081905550600180600082825401925050819055505b60008060006001548152602001908152602001600020541415610e115760046001600082825481610df857fe5b0692505081905550600180600082825401925050819055505b60008060006001548152602001908152602001600020541415610e4a576001600360016101000a81548160ff0219169083151502179055505b6001600360006101000a81548160ff0219169083151502179055506000600360026101000a81548160ff0219169083151502179055506000600281905550505050565b60001515600360009054906101000a900460ff16151514610ef9576040517f08c379a000000000000000000000000000000000000000000000000000000000815260040180806020018281038252602b8152602001806113b0602b913960400191505060405180910390fd5b336005600083815260200190815260200160002060006101000a81548173ffffffffffffffffffffffffffffffffffffffff021916908373ffffffffffffffffffffffffffffffffffffffff16021790555080600660003373ffffffffffffffffffffffffffffffffffffffff1673ffffffffffffffffffffffffffffffffffffffff1681526020019081526020016000208190555050565b60095481565b600360019054906101000a900460ff1681565b600360029054906101000a900460ff1681565b600a5481565b60015481565b610fd2611346565b6040518060a00160405280600080600181526020019081526020016000205481526020016000806002815260200190815260200160002054815260200160008060038152602001908152602001600020548152602001600080600481526020019081526020016000205481526020016000806005815260200190815260200160002054815250905090565b60085460106000600754815260200190815260200160002054106110dd57600060018054039050600081141561109257600490505b61109b816111df565b80600981905550600154600a819055506001600080600a548152602001908152602001600020600082825403925050819055506110d781611266565b5061113f565b60006001805403905060008114156110f457600490505b6110ff6001546111df565b60015460098190555080600a819055506001600080600a5481526020019081526020016000206000828254039250508190555061113d600154611266565b505b6001600360026101000a81548160ff021916908315150217905550565b6000600160064286858702604051602001808481526020018373ffffffffffffffffffffffffffffffffffffffff1673ffffffffffffffffffffffffffffffffffffffff1660601b815260140182815260200193505050506040516020818303038152906040528051906020012060001c816111d457fe5b060190509392505050565b6005600082815260200190815260200160002060009054906101000a900473ffffffffffffffffffffffffffffffffffffffff1673ffffffffffffffffffffffffffffffffffffffff166108fc6004549081150290604051600060405180830381858888f1935050505015801561125a573d6000803e3d6000fd5b50600060048190555050565b6001600642604051602001808281526020019150506040516020818303038152906040528051906020012060001c8161129b57fe5b06016007819055506000600881905550806001819055508060028190555060006010600060018152602001908152602001600020819055506000601060006002815260200190815260200160002081905550600060106000600381526020019081526020016000208190555060006010600060048152602001908152602001600020819055506000601060006005815260200190815260200160002081905550600060048190555050565b6040518060a0016040528060059060208202803883398082019150509050509056fe506572736f6e2077686f20737461727465642074686520726f756e642063616e6e6f742063616c6c2074686520626574206f66207468652070726576696f757320706c6179657247616d652068617320616c726561647920626567756e2c2063616e6e6f74207265676973746572206e6f77a265627a7a7231582069fe5fde5d27bf1307bd03cb73aadd67818d8caa28b475c36cbea4b9ca12202f64736f6c63430005100032",
  "source": "pragma solidity ^0.5.0;\n\ncontract MyStringStore {\n  mapping (uint => uint) dieLeft;\n\n  uint public currentTurn;\n  uint public roundStarter;\n\n  bool gameStarted;\n  bool public gameOver;\n\n  bool public fetchable;\n\n  /// Payment pool to be paid to the winner at the end\n  uint pool;\n\n  /// Keep addressMap and reverseAddressMap for mapping the turns to addresses\n  mapping(uint => address payable) addressMap;\n  mapping(address => uint) reverseAddressMap;\n\n  /// public face and bets\n  uint public face;\n  uint public bet;\n\n  uint public roundWinner;\n  uint public roundLoser;\n\n  mapping(address => uint) hashedRolls1;\n  mapping(address => uint) hashedRolls2;\n  mapping(address => uint) hashedRolls3;\n  mapping(address => uint) hashedRolls4;\n  mapping(address => uint) hashedRolls5;\n\n  mapping(uint => uint) counts;\n\n  /// constructor initialises the state of the game before starting\n  constructor () public {\n    fetchable = false;\n    gameStarted = false;\n    gameOver = false;\n    dieLeft[1] = 5;\n    dieLeft[2] = 5;\n    dieLeft[3] = 5;\n    dieLeft[4] = 5;\n    dieLeft[5] = 5;\n    resetRound(1);\n  }\n\n  /// registerPlayer for registering the player before starting the game\n  /// unregistered players will not be allowed in the game after the game has begun.\n  function registerPlayer(uint player) public {\n    require(gameStarted == false, \"Game has already begun, cannot register now\");\n    addressMap[player] = msg.sender;\n    reverseAddressMap[msg.sender] = player;\n  }\n\n  /// resetRound to reset after termination of each round, i.e. after a challenge has been called.\n  function resetRound(uint firstplayer) private {\n    // randomly initialise a face value\n    face = (uint(keccak256(abi.encodePacked(now)))%6) + 1;\n    bet = 0;\n    currentTurn = firstplayer;\n    roundStarter = firstplayer;\n\n    counts[1] = 0;\n    counts[2] = 0;\n    counts[3] = 0;\n    counts[4] = 0;\n    counts[5] = 0;\n\n    pool = 0;\n  }\n  \n  /// callPrev for challenging the outcome of the last bet.\n  function callPrev() public {\n    require(msg.sender == addressMap[currentTurn], \"Not your turn\");\n    require(dieLeft[currentTurn] > 0, \"Dice over for you, game over\");\n    require(currentTurn != roundStarter, \"Person who started the round cannot call the bet of the previous player\");\n    require(!gameOver, \"game is over\");\n\n    // getRoundWinner is private to not disclose the winner prematurely\n    getRoundWinner();\n  }\n\n  /// getRandom to fetch a random number using a nonce and the timestamp of the block\n  function getRandom(address addr, uint nonce, uint key) view private returns (uint) {\n    return (uint(keccak256(abi.encodePacked(now, addr, nonce*key)))%6) + 1;\n  }\n\n  /// roll function is a playable event to roll the dice.\n  /// to keep the rolls secret, no one must know the outcome of the rolls,\n  /// so we use random number generation inside solidity for the same.\n  function roll(uint nonce, uint incomingbet) public payable {\n    require(msg.sender == addressMap[currentTurn], \"Not your turn\");\n\n    // dont let a player play if all his lives are over\n    require(dieLeft[currentTurn] > 0, \"Dice over for you, game over\");\n\n    require(dieLeft[currentTurn] > 0, \"Dice over for you, game over\");\n    require(incomingbet >= bet, \"illegal bid\");\n    require(msg.value >= 5, \"Minimum pay is 5 wei\");\n    require(!gameOver, \"game is over\");\n\n    uint rnd = getRandom(msg.sender, nonce, 1);\n    hashedRolls1[msg.sender] = rnd;\n    counts[rnd] += 1;\n\n    rnd = getRandom(msg.sender, nonce, 2);\n    hashedRolls2[msg.sender] = rnd;\n    counts[rnd] += 1;\n\n    rnd = getRandom(msg.sender, nonce, 3);\n    hashedRolls3[msg.sender] = rnd;\n    counts[rnd] += 1;\n\n    rnd = getRandom(msg.sender, nonce, 4);\n    hashedRolls4[msg.sender] = rnd;\n    counts[rnd] += 1;\n\n    rnd = getRandom(msg.sender, nonce, 5);\n    hashedRolls5[msg.sender] = rnd;\n    counts[rnd] += 1;\n\n    bet = incomingbet;\n    pool += msg.value;\n\n    currentTurn %= 4;\n    currentTurn += 1;\n\n    if (dieLeft[currentTurn] == 0) {\n      currentTurn %= 4;\n      currentTurn += 1;\n    }\n\n    if (dieLeft[currentTurn] == 0) {\n      currentTurn %= 4;\n      currentTurn += 1;\n    }\n\n    if (dieLeft[currentTurn] == 0) {\n      gameOver = true;\n    }\n\n    gameStarted = true;\n    fetchable = false;\n    roundStarter = 0;\n  }\n\n  /// Transfer the payment pool to the winner of each round.\n  function transferPool(uint player) private {\n    addressMap[player].transfer(pool);\n    pool = 0;\n  }\n\n  /// revealDie to reveal the dice of all the players only AFTER the termination of the round.\n  /// termination of round kept in check with the fetchable variable\n  function revealDie() public view returns (uint[5] memory) {\n    require(fetchable, \"Can\\'t view dice right now\");\n    return([hashedRolls1[msg.sender], hashedRolls2[msg.sender],\n        hashedRolls3[msg.sender], hashedRolls4[msg.sender], hashedRolls5[msg.sender]]);\n  }\n\n  function lives() public view returns (uint[5] memory) {\n    return ([dieLeft[1], dieLeft[2], dieLeft[3], dieLeft[4], dieLeft[5]]);\n  }\n\n  /// getRoundWinner evaluates the winner as well as the loser of the round.\n  /// The money pool is transferred to the winner.\n  /// The loser loses a dice.\n  function getRoundWinner() private {\n    if (counts[face] >= bet) {\n      uint player = currentTurn - 1;\n      if (player == 0) player = 4;\n\n      transferPool(player);\n      roundWinner = player;\n      roundLoser = currentTurn;\n      dieLeft[roundLoser] -= 1;\n      resetRound(player);\n    } else {\n      uint player = currentTurn - 1;\n      if (player == 0) player = 4;\n\n      transferPool(currentTurn);\n      roundWinner = currentTurn;\n      roundLoser = player;\n      dieLeft[roundLoser] -= 1;\n      resetRound(currentTurn);\n    }\n    fetchable = true;\n  }\n}\n",
  "sourcePath": "/home/chan/web3.0-tutorial-truffle/contracts/MyStringStore.sol",
  "compiler": {
    "name": "solc",
    "version": "0.5.16+commit.9c3226ce.Emscripten.clang"
  },
  "schemaVersion": "3.2.5",
  "updatedAt": "2020-10-11T18:22:17.522Z",
  "networkType": "ethereum",
  "devdoc": {
    "methods": {}
  },
  "userdoc": {
    "methods": {
      "callPrev()": {
        "notice": "callPrev for challenging the outcome of the last bet."
      },
      "constructor": "constructor initialises the state of the game before starting",
      "registerPlayer(uint256)": {
        "notice": "registerPlayer for registering the player before starting the game unregistered players will not be allowed in the game after the game has begun."
      },
      "revealDie()": {
        "notice": "revealDie to reveal the dice of all the players only AFTER the termination of the round. termination of round kept in check with the fetchable variable"
      },
      "roll(uint256,uint256)": {
        "notice": "roll function is a playable event to roll the dice. to keep the rolls secret, no one must know the outcome of the rolls, so we use random number generation inside solidity for the same."
      }
    }
  }
}