{
  "contractName": "MyStringStore",
  "abi": [
    {
      "inputs": [],
      "payable": false,
      "stateMutability": "nonpayable",
      "type": "constructor"
    },
    {
      "constant": true,
      "inputs": [],
      "name": "bet",
      "outputs": [
        {
          "internalType": "uint256",
          "name": "",
          "type": "uint256"
        }
      ],
      "payable": false,
      "stateMutability": "view",
      "type": "function"
    },
    {
      "constant": true,
      "inputs": [],
      "name": "currentTurn",
      "outputs": [
        {
          "internalType": "uint256",
          "name": "",
          "type": "uint256"
        }
      ],
      "payable": false,
      "stateMutability": "view",
      "type": "function"
    },
    {
      "constant": true,
      "inputs": [],
      "name": "face",
      "outputs": [
        {
          "internalType": "uint256",
          "name": "",
          "type": "uint256"
        }
      ],
      "payable": false,
      "stateMutability": "view",
      "type": "function"
    },
    {
      "constant": true,
      "inputs": [],
      "name": "fetchable",
      "outputs": [
        {
          "internalType": "bool",
          "name": "",
          "type": "bool"
        }
      ],
      "payable": false,
      "stateMutability": "view",
      "type": "function"
    },
    {
      "constant": true,
      "inputs": [],
      "name": "roundLoser",
      "outputs": [
        {
          "internalType": "uint256",
          "name": "",
          "type": "uint256"
        }
      ],
      "payable": false,
      "stateMutability": "view",
      "type": "function"
    },
    {
      "constant": true,
      "inputs": [],
      "name": "roundStarter",
      "outputs": [
        {
          "internalType": "uint256",
          "name": "",
          "type": "uint256"
        }
      ],
      "payable": false,
      "stateMutability": "view",
      "type": "function"
    },
    {
      "constant": true,
      "inputs": [],
      "name": "roundWinner",
      "outputs": [
        {
          "internalType": "uint256",
          "name": "",
          "type": "uint256"
        }
      ],
      "payable": false,
      "stateMutability": "view",
      "type": "function"
    },
    {
      "constant": false,
      "inputs": [
        {
          "internalType": "uint256",
          "name": "player",
          "type": "uint256"
        }
      ],
      "name": "registerPlayer",
      "outputs": [],
      "payable": false,
      "stateMutability": "nonpayable",
      "type": "function"
    },
    {
      "constant": false,
      "inputs": [],
      "name": "callPrev",
      "outputs": [],
      "payable": false,
      "stateMutability": "nonpayable",
      "type": "function"
    },
    {
      "constant": false,
      "inputs": [
        {
          "internalType": "uint256",
          "name": "nonce",
          "type": "uint256"
        },
        {
          "internalType": "uint256",
          "name": "incomingbet",
          "type": "uint256"
        }
      ],
      "name": "roll",
      "outputs": [],
      "payable": true,
      "stateMutability": "payable",
      "type": "function"
    },
    {
      "constant": true,
      "inputs": [],
      "name": "revealDie",
      "outputs": [
        {
          "internalType": "uint256[5]",
          "name": "",
          "type": "uint256[5]"
        }
      ],
      "payable": false,
      "stateMutability": "view",
      "type": "function"
    }
  ],
  "bytecode": "0x608060405234801561001057600080fd5b506000600360016101000a81548160ff0219169083151502179055506000600360006101000a81548160ff02191690831515021790555060056000806001815260200190815260200160002081905550600560008060028152602001908152602001600020819055506005600080600381526020019081526020016000208190555060056000806004815260200190815260200160002081905550600560008060058152602001908152602001600020819055506100d460016100d960201b60201c565b6101b9565b6001600642604051602001808281526020019150506040516020818303038152906040528051906020012060001c8161010e57fe5b06016007819055506000600881905550806001819055508060028190555060006010600060018152602001908152602001600020819055506000601060006002815260200190815260200160002081905550600060106000600381526020019081526020016000208190555060006010600060048152602001908152602001600020819055506000601060006005815260200190815260200160002081905550600060048190555050565b61130e806101c86000396000f3fe60806040526004361061009c5760003560e01c80636ec9b897116100645780636ec9b8971461018c578063821644e6146101c4578063a823a60d146101ff578063c6cd3b241461022a578063d5bc784814610259578063deb61286146102845761009c565b806311610c25146100a15780631c582cf7146100cc578063297f5abd146100f7578063469e01421461014a578063520298a014610161575b600080fd5b3480156100ad57600080fd5b506100b66102af565b6040518082815260200191505060405180910390f35b3480156100d857600080fd5b506100e16102b5565b6040518082815260200191505060405180910390f35b34801561010357600080fd5b5061010c6102bb565b6040518082600560200280838360005b8381101561013757808201518184015260208101905061011c565b5050505090500191505060405180910390f35b34801561015657600080fd5b5061015f6104ac565b005b34801561016d57600080fd5b50610176610673565b6040518082815260200191505060405180910390f35b6101c2600480360360408110156101a257600080fd5b810190808035906020019092919080359060200190929190505050610679565b005b3480156101d057600080fd5b506101fd600480360360208110156101e757600080fd5b8101908080359060200190929190505050610e26565b005b34801561020b57600080fd5b50610214610f2b565b6040518082815260200191505060405180910390f35b34801561023657600080fd5b5061023f610f31565b604051808215151515815260200191505060405180910390f35b34801561026557600080fd5b5061026e610f44565b6040518082815260200191505060405180910390f35b34801561029057600080fd5b50610299610f4a565b6040518082815260200191505060405180910390f35b60085481565b60075481565b6102c3611245565b600360019054906101000a900460ff16610345576040517f08c379a00000000000000000000000000000000000000000000000000000000081526004018080602001828103825260198152602001807f43616e277420766965772064696365207269676874206e6f770000000000000081525060200191505060405180910390fd5b6040518060a00160405280600b60003373ffffffffffffffffffffffffffffffffffffffff1673ffffffffffffffffffffffffffffffffffffffff168152602001908152602001600020548152602001600c60003373ffffffffffffffffffffffffffffffffffffffff1673ffffffffffffffffffffffffffffffffffffffff168152602001908152602001600020548152602001600d60003373ffffffffffffffffffffffffffffffffffffffff1673ffffffffffffffffffffffffffffffffffffffff168152602001908152602001600020548152602001600e60003373ffffffffffffffffffffffffffffffffffffffff1673ffffffffffffffffffffffffffffffffffffffff168152602001908152602001600020548152602001600f60003373ffffffffffffffffffffffffffffffffffffffff1673ffffffffffffffffffffffffffffffffffffffff16815260200190815260200160002054815250905090565b60056000600154815260200190815260200160002060009054906101000a900473ffffffffffffffffffffffffffffffffffffffff1673ffffffffffffffffffffffffffffffffffffffff163373ffffffffffffffffffffffffffffffffffffffff1614610582576040517f08c379a000000000000000000000000000000000000000000000000000000000815260040180806020018281038252600d8152602001807f4e6f7420796f7572207475726e0000000000000000000000000000000000000081525060200191505060405180910390fd5b60008060006001548152602001908152602001600020541161060c576040517f08c379a000000000000000000000000000000000000000000000000000000000815260040180806020018281038252601c8152602001807f44696365206f76657220666f7220796f752c2067616d65206f7665720000000081525060200191505060405180910390fd5b6002546001541415610669576040517f08c379a00000000000000000000000000000000000000000000000000000000081526004018080602001828103825260478152602001806112686047913960600191505060405180910390fd5b610671610f50565b565b60025481565b60056000600154815260200190815260200160002060009054906101000a900473ffffffffffffffffffffffffffffffffffffffff1673ffffffffffffffffffffffffffffffffffffffff163373ffffffffffffffffffffffffffffffffffffffff161461074f576040517f08c379a000000000000000000000000000000000000000000000000000000000815260040180806020018281038252600d8152602001807f4e6f7420796f7572207475726e0000000000000000000000000000000000000081525060200191505060405180910390fd5b6000806000600154815260200190815260200160002054116107d9576040517f08c379a000000000000000000000000000000000000000000000000000000000815260040180806020018281038252601c8152602001807f44696365206f76657220666f7220796f752c2067616d65206f7665720000000081525060200191505060405180910390fd5b600080600060015481526020019081526020016000205411610863576040517f08c379a000000000000000000000000000000000000000000000000000000000815260040180806020018281038252601c8152602001807f44696365206f76657220666f7220796f752c2067616d65206f7665720000000081525060200191505060405180910390fd5b6008548110156108db576040517f08c379a000000000000000000000000000000000000000000000000000000000815260040180806020018281038252600b8152602001807f696c6c6567616c2062696400000000000000000000000000000000000000000081525060200191505060405180910390fd5b6005341015610952576040517f08c379a00000000000000000000000000000000000000000000000000000000081526004018080602001828103825260148152602001807f4d696e696d756d2070617920697320352077656900000000000000000000000081525060200191505060405180910390fd5b600080600060015481526020019081526020016000205411156109eb57600061097d3384600161105b565b905080600b60003373ffffffffffffffffffffffffffffffffffffffff1673ffffffffffffffffffffffffffffffffffffffff168152602001908152602001600020819055506001601060008381526020019081526020016000206000828254019250508190555050610a31565b6000600b60003373ffffffffffffffffffffffffffffffffffffffff1673ffffffffffffffffffffffffffffffffffffffff168152602001908152602001600020819055505b60016000806001548152602001908152602001600020541115610aca576000610a5c3384600261105b565b905080600c60003373ffffffffffffffffffffffffffffffffffffffff1673ffffffffffffffffffffffffffffffffffffffff168152602001908152602001600020819055506001601060008381526020019081526020016000206000828254019250508190555050610b10565b6000600c60003373ffffffffffffffffffffffffffffffffffffffff1673ffffffffffffffffffffffffffffffffffffffff168152602001908152602001600020819055505b60026000806001548152602001908152602001600020541115610ba9576000610b3b3384600361105b565b905080600d60003373ffffffffffffffffffffffffffffffffffffffff1673ffffffffffffffffffffffffffffffffffffffff168152602001908152602001600020819055506001601060008381526020019081526020016000206000828254019250508190555050610bef565b6000600d60003373ffffffffffffffffffffffffffffffffffffffff1673ffffffffffffffffffffffffffffffffffffffff168152602001908152602001600020819055505b60036000806001548152602001908152602001600020541115610c88576000610c1a3384600461105b565b905080600e60003373ffffffffffffffffffffffffffffffffffffffff1673ffffffffffffffffffffffffffffffffffffffff168152602001908152602001600020819055506001601060008381526020019081526020016000206000828254019250508190555050610cce565b6000600e60003373ffffffffffffffffffffffffffffffffffffffff1673ffffffffffffffffffffffffffffffffffffffff168152602001908152602001600020819055505b60046000806001548152602001908152602001600020541115610d67576000610cf93384600561105b565b905080600f60003373ffffffffffffffffffffffffffffffffffffffff1673ffffffffffffffffffffffffffffffffffffffff168152602001908152602001600020819055506001601060008381526020019081526020016000206000828254019250508190555050610dad565b6000600f60003373ffffffffffffffffffffffffffffffffffffffff1673ffffffffffffffffffffffffffffffffffffffff168152602001908152602001600020819055505b806008819055503460046000828254019250508190555060046001600082825481610dd457fe5b0692505081905550600180600082825401925050819055506001600360006101000a81548160ff0219169083151502179055506000600360016101000a81548160ff0219169083151502179055505050565b60001515600360009054906101000a900460ff16151514610e92576040517f08c379a000000000000000000000000000000000000000000000000000000000815260040180806020018281038252602b8152602001806112af602b913960400191505060405180910390fd5b336005600083815260200190815260200160002060006101000a81548173ffffffffffffffffffffffffffffffffffffffff021916908373ffffffffffffffffffffffffffffffffffffffff16021790555080600660003373ffffffffffffffffffffffffffffffffffffffff1673ffffffffffffffffffffffffffffffffffffffff1681526020019081526020016000208190555050565b60095481565b600360019054906101000a900460ff1681565b600a5481565b60015481565b6008546010600060075481526020019081526020016000205410610fd65760006001805403905060006001541415610f8b5760046001819055505b610f94816110de565b80600981905550600154600a819055506001600080600a54815260200190815260200160002060008282540392505081905550610fd081611165565b5061103e565b60006001805403905060006001541415610ff35760046001819055505b610ffe6001546110de565b60015460098190555080600a819055506001600080600a5481526020019081526020016000206000828254039250508190555061103c600154611165565b505b6001600360016101000a81548160ff021916908315150217905550565b6000600160064286858702604051602001808481526020018373ffffffffffffffffffffffffffffffffffffffff1673ffffffffffffffffffffffffffffffffffffffff1660601b815260140182815260200193505050506040516020818303038152906040528051906020012060001c816110d357fe5b060190509392505050565b6005600082815260200190815260200160002060009054906101000a900473ffffffffffffffffffffffffffffffffffffffff1673ffffffffffffffffffffffffffffffffffffffff166108fc6004549081150290604051600060405180830381858888f19350505050158015611159573d6000803e3d6000fd5b50600060048190555050565b6001600642604051602001808281526020019150506040516020818303038152906040528051906020012060001c8161119a57fe5b06016007819055506000600881905550806001819055508060028190555060006010600060018152602001908152602001600020819055506000601060006002815260200190815260200160002081905550600060106000600381526020019081526020016000208190555060006010600060048152602001908152602001600020819055506000601060006005815260200190815260200160002081905550600060048190555050565b6040518060a0016040528060059060208202803883398082019150509050509056fe506572736f6e2077686f20737461727465642074686520726f756e642063616e6e6f742063616c6c2074686520626574206f66207468652070726576696f757320706c6179657247616d652068617320616c726561647920626567756e2c2063616e6e6f74207265676973746572206e6f77a265627a7a72315820a672ccf61bc369392534bbfdb64ca7078e31c2fd710a6dd410bdb34bf770d88064736f6c63430005100032",
  "source": "pragma solidity ^0.5.0;\n\ncontract MyStringStore {\n  mapping (uint => uint) dieLeft;\n\n  uint public currentTurn;\n  uint public roundStarter;\n\n  bool gameStarted;\n\n  bool public fetchable;\n\n  uint pool;\n\n  mapping(uint => address payable) addressMap;\n  mapping(address => uint) reverseAddressMap;\n\n  uint public face;\n  uint public bet;\n\n  uint public roundWinner;\n  uint public roundLoser;\n\n  mapping(address => uint) hashedRolls1;\n  mapping(address => uint) hashedRolls2;\n  mapping(address => uint) hashedRolls3;\n  mapping(address => uint) hashedRolls4;\n  mapping(address => uint) hashedRolls5;\n\n  mapping(uint => uint) counts;\n\n  constructor () public {\n    fetchable = false;\n    gameStarted = false;\n    dieLeft[1] = 5;\n    dieLeft[2] = 5;\n    dieLeft[3] = 5;\n    dieLeft[4] = 5;\n    dieLeft[5] = 5;\n    resetRound(1);\n  }\n\n  function registerPlayer(uint player) public {\n    require(gameStarted == false, \"Game has already begun, cannot register now\");\n    addressMap[player] = msg.sender;\n    reverseAddressMap[msg.sender] = player;\n  }\n\n  function resetRound(uint firstplayer) private {\n    face = (uint(keccak256(abi.encodePacked(now)))%6) + 1;\n    bet = 0;\n    currentTurn = firstplayer;\n    roundStarter = firstplayer;\n\n    counts[1] = 0;\n    counts[2] = 0;\n    counts[3] = 0;\n    counts[4] = 0;\n    counts[5] = 0;\n\n    pool = 0;\n  }\n  \n  function callPrev() public {\n    require(msg.sender == addressMap[currentTurn], \"Not your turn\");\n    require(dieLeft[currentTurn] > 0, \"Dice over for you, game over\");\n    require(currentTurn != roundStarter, \"Person who started the round cannot call the bet of the previous player\");\n\n    getRoundWinner();\n  }\n\n  function getRandom(address addr, uint nonce, uint key) view private returns (uint) {\n    return (uint(keccak256(abi.encodePacked(now, addr, nonce*key)))%6) + 1;\n  }\n\n  function roll(uint nonce, uint incomingbet) public payable {\n    require(msg.sender == addressMap[currentTurn], \"Not your turn\");\n    require(dieLeft[currentTurn] > 0, \"Dice over for you, game over\");\n\n    require(dieLeft[currentTurn] > 0, \"Dice over for you, game over\");\n    require(incomingbet >= bet, \"illegal bid\");\n    require(msg.value >= 5, \"Minimum pay is 5 wei\");\n\n    if (dieLeft[currentTurn] > 0) {\n      uint rnd = getRandom(msg.sender, nonce, 1);\n      hashedRolls1[msg.sender] = rnd;\n      counts[rnd] += 1;\n    } else {\n      hashedRolls1[msg.sender] = 0;\n    }\n    if (dieLeft[currentTurn] > 1) {\n      uint rnd = getRandom(msg.sender, nonce, 2);\n      hashedRolls2[msg.sender] = rnd;\n      counts[rnd] += 1;\n    } else {\n      hashedRolls2[msg.sender] = 0;\n    }\n    if (dieLeft[currentTurn] > 2) {\n      uint rnd = getRandom(msg.sender, nonce, 3);\n      hashedRolls3[msg.sender] = rnd;\n      counts[rnd] += 1;\n    } else {\n      hashedRolls3[msg.sender] = 0;\n    }\n    if (dieLeft[currentTurn] > 3) {\n      uint rnd = getRandom(msg.sender, nonce, 4);\n      hashedRolls4[msg.sender] = rnd;\n      counts[rnd] += 1;\n    } else {\n      hashedRolls4[msg.sender] = 0;\n    }\n    if (dieLeft[currentTurn] > 4) {\n      uint rnd = getRandom(msg.sender, nonce, 5);\n      hashedRolls5[msg.sender] = rnd;\n      counts[rnd] += 1;\n    } else {\n      hashedRolls5[msg.sender] = 0;\n    }\n\n    bet = incomingbet;\n    pool += msg.value;\n\n    currentTurn %= 4;\n    currentTurn += 1;\n\n    gameStarted = true;\n    fetchable = false;\n  }\n\n  function transferPool(uint player) private {\n    addressMap[player].transfer(pool);\n    pool = 0;\n  }\n\n  function revealDie() public view returns (uint[5] memory) {\n    require(fetchable, \"Can\\'t view dice right now\");\n    return([hashedRolls1[msg.sender], hashedRolls2[msg.sender],\n        hashedRolls3[msg.sender], hashedRolls4[msg.sender], hashedRolls5[msg.sender]]);\n  }\n\n  function getRoundWinner() private {\n    if (counts[face] >= bet) {\n      uint player = currentTurn - 1;\n      if (currentTurn == 0) currentTurn = 4;\n\n      transferPool(player);\n      roundWinner = player;\n      roundLoser = currentTurn;\n      dieLeft[roundLoser] -= 1;\n      resetRound(player);\n    } else {\n      uint player = currentTurn - 1;\n      if (currentTurn == 0) currentTurn = 4;\n\n      transferPool(currentTurn);\n      roundWinner = currentTurn;\n      roundLoser = player;\n      dieLeft[roundLoser] -= 1;\n      resetRound(currentTurn);\n    }\n    fetchable = true;\n  }\n}\n",
  "sourcePath": "/home/chan/web3.0-tutorial-truffle/contracts/MyStringStore.sol",
  "compiler": {
    "name": "solc",
    "version": "0.5.16+commit.9c3226ce.Emscripten.clang"
  },
  "schemaVersion": "3.2.5",
  "updatedAt": "2020-10-11T10:31:22.977Z",
  "networkType": "ethereum",
  "devdoc": {
    "methods": {}
  },
  "userdoc": {
    "methods": {}
  }
}