{
  "contractName": "MyStringStore",
  "abi": [
    {
      "inputs": [],
      "payable": false,
      "stateMutability": "nonpayable",
      "type": "constructor"
    },
    {
      "constant": true,
      "inputs": [],
      "name": "bet",
      "outputs": [
        {
          "internalType": "uint256",
          "name": "",
          "type": "uint256"
        }
      ],
      "payable": false,
      "stateMutability": "view",
      "type": "function"
    },
    {
      "constant": true,
      "inputs": [],
      "name": "currentTurn",
      "outputs": [
        {
          "internalType": "uint256",
          "name": "",
          "type": "uint256"
        }
      ],
      "payable": false,
      "stateMutability": "view",
      "type": "function"
    },
    {
      "constant": true,
      "inputs": [],
      "name": "face",
      "outputs": [
        {
          "internalType": "uint256",
          "name": "",
          "type": "uint256"
        }
      ],
      "payable": false,
      "stateMutability": "view",
      "type": "function"
    },
    {
      "constant": true,
      "inputs": [],
      "name": "fetchable",
      "outputs": [
        {
          "internalType": "bool",
          "name": "",
          "type": "bool"
        }
      ],
      "payable": false,
      "stateMutability": "view",
      "type": "function"
    },
    {
      "constant": true,
      "inputs": [],
      "name": "roundLoser",
      "outputs": [
        {
          "internalType": "uint256",
          "name": "",
          "type": "uint256"
        }
      ],
      "payable": false,
      "stateMutability": "view",
      "type": "function"
    },
    {
      "constant": true,
      "inputs": [],
      "name": "roundStarter",
      "outputs": [
        {
          "internalType": "uint256",
          "name": "",
          "type": "uint256"
        }
      ],
      "payable": false,
      "stateMutability": "view",
      "type": "function"
    },
    {
      "constant": true,
      "inputs": [],
      "name": "roundWinner",
      "outputs": [
        {
          "internalType": "uint256",
          "name": "",
          "type": "uint256"
        }
      ],
      "payable": false,
      "stateMutability": "view",
      "type": "function"
    },
    {
      "constant": false,
      "inputs": [
        {
          "internalType": "uint256",
          "name": "player",
          "type": "uint256"
        }
      ],
      "name": "registerPlayer",
      "outputs": [],
      "payable": false,
      "stateMutability": "nonpayable",
      "type": "function"
    },
    {
      "constant": true,
      "inputs": [
        {
          "internalType": "uint256",
          "name": "player",
          "type": "uint256"
        }
      ],
      "name": "getDiceCount",
      "outputs": [
        {
          "internalType": "uint256",
          "name": "",
          "type": "uint256"
        }
      ],
      "payable": false,
      "stateMutability": "view",
      "type": "function"
    },
    {
      "constant": false,
      "inputs": [
        {
          "internalType": "uint256",
          "name": "incomingbet",
          "type": "uint256"
        }
      ],
      "name": "raise",
      "outputs": [],
      "payable": true,
      "stateMutability": "payable",
      "type": "function"
    },
    {
      "constant": false,
      "inputs": [],
      "name": "callPrev",
      "outputs": [],
      "payable": false,
      "stateMutability": "nonpayable",
      "type": "function"
    },
    {
      "constant": false,
      "inputs": [
        {
          "internalType": "uint256",
          "name": "nonce",
          "type": "uint256"
        }
      ],
      "name": "roll",
      "outputs": [],
      "payable": false,
      "stateMutability": "nonpayable",
      "type": "function"
    },
    {
      "constant": true,
      "inputs": [],
      "name": "revealDie",
      "outputs": [
        {
          "internalType": "uint256[5]",
          "name": "",
          "type": "uint256[5]"
        }
      ],
      "payable": false,
      "stateMutability": "view",
      "type": "function"
    }
  ],
  "bytecode": "0x608060405234801561001057600080fd5b506000600560006101000a81548160ff0219169083151502179055506000600360006101000a81548160ff021916908315150217905550610057600161005c60201b60201c565b610154565b6001600642604051602001808281526020019150506040516020818303038152906040528051906020012060001c8161009157fe5b06016009819055506000600a81905550806001819055508060028190555060006004819055506000600b819055506000600c8190555060006012600060018152602001908152602001600020819055506000601260006002815260200190815260200160002081905550600060126000600381526020019081526020016000208190555060006012600060048152602001908152602001600020819055506000601260006005815260200190815260200160002081905550600060068190555050565b611472806101636000396000f3fe6080604052600436106100c15760003560e01c8063520298a01161007f578063c6cd3b2411610059578063c6cd3b2414610280578063d5bc7848146102af578063deb61286146102da578063fb3598a114610305576100c1565b8063520298a0146101ef578063821644e61461021a578063a823a60d14610255576100c1565b80624f4803146100c657806311610c25146100f45780631c582cf71461011f5780631f7b4f301461014a578063297f5abd14610185578063469e0142146101d8575b600080fd5b6100f2600480360360208110156100dc57600080fd5b8101908080359060200190929190505050610354565b005b34801561010057600080fd5b506101096105ad565b6040518082815260200191505060405180910390f35b34801561012b57600080fd5b506101346105b3565b6040518082815260200191505060405180910390f35b34801561015657600080fd5b506101836004803603602081101561016d57600080fd5b81019080803590602001909291905050506105b9565b005b34801561019157600080fd5b5061019a610be6565b6040518082600560200280838360005b838110156101c55780820151818401526020810190506101aa565b5050505090500191505060405180910390f35b3480156101e457600080fd5b506101ed610dd7565b005b3480156101fb57600080fd5b50610204610f9e565b6040518082815260200191505060405180910390f35b34801561022657600080fd5b506102536004803603602081101561023d57600080fd5b8101908080359060200190929190505050610fa4565b005b34801561026157600080fd5b5061026a6110a9565b6040518082815260200191505060405180910390f35b34801561028c57600080fd5b506102956110af565b604051808215151515815260200191505060405180910390f35b3480156102bb57600080fd5b506102c46110c2565b6040518082815260200191505060405180910390f35b3480156102e657600080fd5b506102ef6110c8565b6040518082815260200191505060405180910390f35b34801561031157600080fd5b5061033e6004803603602081101561032857600080fd5b81019080803590602001909291905050506110ce565b6040518082815260200191505060405180910390f35b60076000600154815260200190815260200160002060009054906101000a900473ffffffffffffffffffffffffffffffffffffffff1673ffffffffffffffffffffffffffffffffffffffff163373ffffffffffffffffffffffffffffffffffffffff161461042a576040517f08c379a000000000000000000000000000000000000000000000000000000000815260040180806020018281038252600d8152602001807f4e6f7420796f7572207475726e0000000000000000000000000000000000000081525060200191505060405180910390fd5b6000806000600154815260200190815260200160002054116104b4576040517f08c379a000000000000000000000000000000000000000000000000000000000815260040180806020018281038252601c8152602001807f44696365206f76657220666f7220796f752c2067616d65206f7665720000000081525060200191505060405180910390fd5b600a5481101561052c576040517f08c379a000000000000000000000000000000000000000000000000000000000815260040180806020018281038252600b8152602001807f696c6c6567616c2062696400000000000000000000000000000000000000000081525060200191505060405180910390fd5b60053410156105a3576040517f08c379a00000000000000000000000000000000000000000000000000000000081526004018080602001828103825260148152602001807f4d696e696d756d2070617920697320352077656900000000000000000000000081525060200191505060405180910390fd5b80600a8190555050565b600a5481565b60095481565b60076000600154815260200190815260200160002060009054906101000a900473ffffffffffffffffffffffffffffffffffffffff1673ffffffffffffffffffffffffffffffffffffffff163373ffffffffffffffffffffffffffffffffffffffff161461068f576040517f08c379a000000000000000000000000000000000000000000000000000000000815260040180806020018281038252600d8152602001807f4e6f7420796f7572207475726e0000000000000000000000000000000000000081525060200191505060405180910390fd5b600080600060015481526020019081526020016000205411610719576040517f08c379a000000000000000000000000000000000000000000000000000000000815260040180806020018281038252601c8152602001807f44696365206f76657220666f7220796f752c2067616d65206f7665720000000081525060200191505060405180910390fd5b600080600060015481526020019081526020016000205411156107b2576000610744338360016110ea565b905080600d60003373ffffffffffffffffffffffffffffffffffffffff1673ffffffffffffffffffffffffffffffffffffffff1681526020019081526020016000208190555060016012600083815260200190815260200160002060008282540192505081905550506107f8565b6000600d60003373ffffffffffffffffffffffffffffffffffffffff1673ffffffffffffffffffffffffffffffffffffffff168152602001908152602001600020819055505b60016000806001548152602001908152602001600020541115610891576000610823338360026110ea565b905080600e60003373ffffffffffffffffffffffffffffffffffffffff1673ffffffffffffffffffffffffffffffffffffffff1681526020019081526020016000208190555060016012600083815260200190815260200160002060008282540192505081905550506108d7565b6000600e60003373ffffffffffffffffffffffffffffffffffffffff1673ffffffffffffffffffffffffffffffffffffffff168152602001908152602001600020819055505b60026000806001548152602001908152602001600020541115610970576000610902338360036110ea565b905080600f60003373ffffffffffffffffffffffffffffffffffffffff1673ffffffffffffffffffffffffffffffffffffffff1681526020019081526020016000208190555060016012600083815260200190815260200160002060008282540192505081905550506109b6565b6000600f60003373ffffffffffffffffffffffffffffffffffffffff1673ffffffffffffffffffffffffffffffffffffffff168152602001908152602001600020819055505b60036000806001548152602001908152602001600020541115610a4f5760006109e1338360046110ea565b905080601060003373ffffffffffffffffffffffffffffffffffffffff1673ffffffffffffffffffffffffffffffffffffffff168152602001908152602001600020819055506001601260008381526020019081526020016000206000828254019250508190555050610a95565b6000601060003373ffffffffffffffffffffffffffffffffffffffff1673ffffffffffffffffffffffffffffffffffffffff168152602001908152602001600020819055505b60046000806001548152602001908152602001600020541115610b2e576000610ac0338360056110ea565b905080601160003373ffffffffffffffffffffffffffffffffffffffff1673ffffffffffffffffffffffffffffffffffffffff168152602001908152602001600020819055506001601260008381526020019081526020016000206000828254019250508190555050610b74565b6000601160003373ffffffffffffffffffffffffffffffffffffffff1673ffffffffffffffffffffffffffffffffffffffff168152602001908152602001600020819055505b600160046000828254019250508190555060046001600082825481610b9557fe5b0692505081905550600180600082825401925050819055506001600360006101000a81548160ff0219169083151502179055506000600560006101000a81548160ff02191690831515021790555050565b610bee6113a9565b600560009054906101000a900460ff16610c70576040517f08c379a00000000000000000000000000000000000000000000000000000000081526004018080602001828103825260198152602001807f43616e277420766965772064696365207269676874206e6f770000000000000081525060200191505060405180910390fd5b6040518060a00160405280600d60003373ffffffffffffffffffffffffffffffffffffffff1673ffffffffffffffffffffffffffffffffffffffff168152602001908152602001600020548152602001600e60003373ffffffffffffffffffffffffffffffffffffffff1673ffffffffffffffffffffffffffffffffffffffff168152602001908152602001600020548152602001600f60003373ffffffffffffffffffffffffffffffffffffffff1673ffffffffffffffffffffffffffffffffffffffff168152602001908152602001600020548152602001601060003373ffffffffffffffffffffffffffffffffffffffff1673ffffffffffffffffffffffffffffffffffffffff168152602001908152602001600020548152602001601160003373ffffffffffffffffffffffffffffffffffffffff1673ffffffffffffffffffffffffffffffffffffffff16815260200190815260200160002054815250905090565b60076000600154815260200190815260200160002060009054906101000a900473ffffffffffffffffffffffffffffffffffffffff1673ffffffffffffffffffffffffffffffffffffffff163373ffffffffffffffffffffffffffffffffffffffff1614610ead576040517f08c379a000000000000000000000000000000000000000000000000000000000815260040180806020018281038252600d8152602001807f4e6f7420796f7572207475726e0000000000000000000000000000000000000081525060200191505060405180910390fd5b600080600060015481526020019081526020016000205411610f37576040517f08c379a000000000000000000000000000000000000000000000000000000000815260040180806020018281038252601c8152602001807f44696365206f76657220666f7220796f752c2067616d65206f7665720000000081525060200191505060405180910390fd5b6002546001541415610f94576040517f08c379a00000000000000000000000000000000000000000000000000000000081526004018080602001828103825260478152602001806113cc6047913960600191505060405180910390fd5b610f9c61116d565b565b60025481565b60001515600360009054906101000a900460ff16151514611010576040517f08c379a000000000000000000000000000000000000000000000000000000000815260040180806020018281038252602b815260200180611413602b913960400191505060405180910390fd5b336007600083815260200190815260200160002060006101000a81548173ffffffffffffffffffffffffffffffffffffffff021916908373ffffffffffffffffffffffffffffffffffffffff16021790555080600860003373ffffffffffffffffffffffffffffffffffffffff1673ffffffffffffffffffffffffffffffffffffffff1681526020019081526020016000208190555050565b600b5481565b600560009054906101000a900460ff1681565b600c5481565b60015481565b6000806000838152602001908152602001600020549050919050565b6000600160064286858702604051602001808481526020018373ffffffffffffffffffffffffffffffffffffffff1673ffffffffffffffffffffffffffffffffffffffff1660601b815260140182815260200193505050506040516020818303038152906040528051906020012060001c8161116257fe5b060190509392505050565b600a5460126000600954815260200190815260200160002054106111d057600060018054039050600060015414156111a85760046001819055505b6111b181611232565b80600b81905550600154600c819055506111ca816112b1565b50611215565b600060018054039050600060015414156111ed5760046001819055505b6111f8600154611232565b600154600b8190555080600c819055506112136001546112b1565b505b6001600560006101000a81548160ff021916908315150217905550565b6007600082815260200190815260200160002060009054906101000a900473ffffffffffffffffffffffffffffffffffffffff1673ffffffffffffffffffffffffffffffffffffffff166108fc6006549081150290604051600060405180830381858888f193505050501580156112ad573d6000803e3d6000fd5b5050565b6001600642604051602001808281526020019150506040516020818303038152906040528051906020012060001c816112e657fe5b06016009819055506000600a81905550806001819055508060028190555060006004819055506000600b819055506000600c8190555060006012600060018152602001908152602001600020819055506000601260006002815260200190815260200160002081905550600060126000600381526020019081526020016000208190555060006012600060048152602001908152602001600020819055506000601260006005815260200190815260200160002081905550600060068190555050565b6040518060a0016040528060059060208202803883398082019150509050509056fe506572736f6e2077686f20737461727465642074686520726f756e642063616e6e6f742063616c6c2074686520626574206f66207468652070726576696f757320706c6179657247616d652068617320616c726561647920626567756e2c2063616e6e6f74207265676973746572206e6f77a265627a7a72315820320d9a97601d0e0142e974a064b0acc2ea99ab1e1ed96d1b1ee254c4d783449464736f6c63430005100032",
  "source": "pragma solidity ^0.5.0;\n\ncontract MyStringStore {\n  mapping (uint => uint) dieLeft;\n\n  uint public currentTurn;\n  uint public roundStarter;\n\n  bool gameStarted;\n  uint turnsSoFar;\n\n  bool public fetchable;\n\n  uint pool;\n\n  mapping(uint => address payable) addressMap;\n  mapping(address => uint) reverseAddressMap;\n\n  uint public face;\n  uint public bet;\n\n  uint public roundWinner;\n  uint public roundLoser;\n\n  mapping(address => uint) hashedRolls1;\n  mapping(address => uint) hashedRolls2;\n  mapping(address => uint) hashedRolls3;\n  mapping(address => uint) hashedRolls4;\n  mapping(address => uint) hashedRolls5;\n\n  mapping(uint => uint) counts;\n\n  constructor () public {\n    fetchable = false;\n    gameStarted = false;\n    resetRound(1);\n  }\n\n  function registerPlayer(uint player) public {\n    require(gameStarted == false, \"Game has already begun, cannot register now\");\n    addressMap[player] = msg.sender;\n    reverseAddressMap[msg.sender] = player;\n  }\n\n  function validatePlayer(uint player) pure private returns (uint) {\n    if (player == 0) return 4;\n    if (player == 5) return 1;\n    if (player > 5 || player < 0) return 100000000;\n  }\n\n  function resetRound(uint firstplayer) private {\n    face = (uint(keccak256(abi.encodePacked(now)))%6) + 1;\n    bet = 0;\n    currentTurn = firstplayer;\n    roundStarter = firstplayer;\n    turnsSoFar = 0;\n\n    roundWinner = 0;\n    roundLoser = 0;\n\n    counts[1] = 0;\n    counts[2] = 0;\n    counts[3] = 0;\n    counts[4] = 0;\n    counts[5] = 0;\n\n    pool = 0;\n  }\n  \n  function getDiceCount(uint player) public view returns (uint) {\n    return dieLeft[player];\n  }\n  \n  function raise(uint incomingbet) public payable {\n    require(msg.sender == addressMap[currentTurn], \"Not your turn\");\n    require(dieLeft[currentTurn] > 0, \"Dice over for you, game over\");\n    require(incomingbet >= bet, \"illegal bid\");\n    require(msg.value >= 5, \"Minimum pay is 5 wei\");\n    bet = incomingbet;\n  }\n\n  function callPrev() public {\n    require(msg.sender == addressMap[currentTurn], \"Not your turn\");\n    require(dieLeft[currentTurn] > 0, \"Dice over for you, game over\");\n    require(currentTurn != roundStarter, \"Person who started the round cannot call the bet of the previous player\");\n\n    getRoundWinner();\n\n  }\n\n  function getRandom(address addr, uint nonce, uint key) view private returns (uint) {\n    return (uint(keccak256(abi.encodePacked(now, addr, nonce*key)))%6) + 1;\n  }\n\n  function roll(uint nonce) public {\n    require(msg.sender == addressMap[currentTurn], \"Not your turn\");\n    require(dieLeft[currentTurn] > 0, \"Dice over for you, game over\");\n\n    if (dieLeft[currentTurn] > 0) {\n      uint rnd = getRandom(msg.sender, nonce, 1);\n      hashedRolls1[msg.sender] = rnd;\n      counts[rnd] += 1;\n    } else {\n      hashedRolls1[msg.sender] = 0;\n    }\n    if (dieLeft[currentTurn] > 1) {\n      uint rnd = getRandom(msg.sender, nonce, 2);\n      hashedRolls2[msg.sender] = rnd;\n      counts[rnd] += 1;\n    } else {\n      hashedRolls2[msg.sender] = 0;\n    }\n    if (dieLeft[currentTurn] > 2) {\n      uint rnd = getRandom(msg.sender, nonce, 3);\n      hashedRolls3[msg.sender] = rnd;\n      counts[rnd] += 1;\n    } else {\n      hashedRolls3[msg.sender] = 0;\n    }\n    if (dieLeft[currentTurn] > 3) {\n      uint rnd = getRandom(msg.sender, nonce, 4);\n      hashedRolls4[msg.sender] = rnd;\n      counts[rnd] += 1;\n    } else {\n      hashedRolls4[msg.sender] = 0;\n    }\n    if (dieLeft[currentTurn] > 4) {\n      uint rnd = getRandom(msg.sender, nonce, 5);\n      hashedRolls5[msg.sender] = rnd;\n      counts[rnd] += 1;\n    } else {\n      hashedRolls5[msg.sender] = 0;\n    }\n\n    turnsSoFar += 1;\n\n    currentTurn %= 4;\n    currentTurn += 1;\n\n    gameStarted = true;\n    fetchable = false;\n  }\n\n  function transferPool(uint player) private {\n    addressMap[player].transfer(pool);\n  }\n\n  function revealDie() public view returns (uint[5] memory) {\n    require(fetchable, \"Can\\'t view dice right now\");\n    return([hashedRolls1[msg.sender], hashedRolls2[msg.sender],\n        hashedRolls3[msg.sender], hashedRolls4[msg.sender], hashedRolls5[msg.sender]]);\n  }\n\n  function getRoundWinner() private {\n    if (counts[face] >= bet) {\n      uint player = currentTurn - 1;\n      if (currentTurn == 0) currentTurn = 4;\n\n      transferPool(player);\n      roundWinner = player;\n      roundLoser = currentTurn;\n      resetRound(player);\n    } else {\n      uint player = currentTurn - 1;\n      if (currentTurn == 0) currentTurn = 4;\n\n      transferPool(currentTurn);\n      roundWinner = currentTurn;\n      roundLoser = player;\n      resetRound(currentTurn);\n    }\n    fetchable = true;\n  }\n}\n",
  "sourcePath": "/home/chan/web3.0-tutorial-truffle/contracts/MyStringStore.sol",
  "compiler": {
    "name": "solc",
    "version": "0.5.16+commit.9c3226ce.Emscripten.clang"
  },
  "schemaVersion": "3.2.5",
  "updatedAt": "2020-10-10T02:23:58.887Z",
  "networkType": "ethereum",
  "devdoc": {
    "methods": {}
  },
  "userdoc": {
    "methods": {}
  }
}